{
  "_format": "hh-sol-artifact-1",
  "contractName": "Etherbase",
  "sourceName": "contracts/Etherbase.sol",
  "abi": [
    {
      "inputs": [
        {
          "internalType": "address",
          "name": "schainOwner",
          "type": "address"
        }
      ],
      "stateMutability": "nonpayable",
      "type": "constructor"
    },
    {
      "anonymous": false,
      "inputs": [
        {
          "indexed": false,
          "internalType": "address",
          "name": "sender",
          "type": "address"
        },
        {
          "indexed": false,
          "internalType": "uint256",
          "name": "amount",
          "type": "uint256"
        }
      ],
      "name": "EtherReceived",
      "type": "event"
    },
    {
      "anonymous": false,
      "inputs": [
        {
          "indexed": false,
          "internalType": "address",
          "name": "receiver",
          "type": "address"
        },
        {
          "indexed": false,
          "internalType": "uint256",
          "name": "amount",
          "type": "uint256"
        }
      ],
      "name": "EtherSent",
      "type": "event"
    },
    {
      "anonymous": false,
      "inputs": [
        {
          "indexed": true,
          "internalType": "bytes32",
          "name": "role",
          "type": "bytes32"
        },
        {
          "indexed": true,
          "internalType": "bytes32",
          "name": "previousAdminRole",
          "type": "bytes32"
        },
        {
          "indexed": true,
          "internalType": "bytes32",
          "name": "newAdminRole",
          "type": "bytes32"
        }
      ],
      "name": "RoleAdminChanged",
      "type": "event"
    },
    {
      "anonymous": false,
      "inputs": [
        {
          "indexed": true,
          "internalType": "bytes32",
          "name": "role",
          "type": "bytes32"
        },
        {
          "indexed": true,
          "internalType": "address",
          "name": "account",
          "type": "address"
        },
        {
          "indexed": true,
          "internalType": "address",
          "name": "sender",
          "type": "address"
        }
      ],
      "name": "RoleGranted",
      "type": "event"
    },
    {
      "anonymous": false,
      "inputs": [
        {
          "indexed": true,
          "internalType": "bytes32",
          "name": "role",
          "type": "bytes32"
        },
        {
          "indexed": true,
          "internalType": "address",
          "name": "account",
          "type": "address"
        },
        {
          "indexed": true,
          "internalType": "address",
          "name": "sender",
          "type": "address"
        }
      ],
      "name": "RoleRevoked",
      "type": "event"
    },
    {
      "inputs": [],
      "name": "DEFAULT_ADMIN_ROLE",
      "outputs": [
        {
          "internalType": "bytes32",
          "name": "",
          "type": "bytes32"
        }
      ],
      "stateMutability": "view",
      "type": "function"
    },
    {
      "inputs": [],
      "name": "ETHER_MANAGER_ROLE",
      "outputs": [
        {
          "internalType": "bytes32",
          "name": "",
          "type": "bytes32"
        }
      ],
      "stateMutability": "view",
      "type": "function"
    },
    {
      "inputs": [
        {
          "internalType": "bytes32",
          "name": "role",
          "type": "bytes32"
        }
      ],
      "name": "getRoleAdmin",
      "outputs": [
        {
          "internalType": "bytes32",
          "name": "",
          "type": "bytes32"
        }
      ],
      "stateMutability": "view",
      "type": "function"
    },
    {
      "inputs": [
        {
          "internalType": "bytes32",
          "name": "role",
          "type": "bytes32"
        },
        {
          "internalType": "uint256",
          "name": "index",
          "type": "uint256"
        }
      ],
      "name": "getRoleMember",
      "outputs": [
        {
          "internalType": "address",
          "name": "",
          "type": "address"
        }
      ],
      "stateMutability": "view",
      "type": "function"
    },
    {
      "inputs": [
        {
          "internalType": "bytes32",
          "name": "role",
          "type": "bytes32"
        }
      ],
      "name": "getRoleMemberCount",
      "outputs": [
        {
          "internalType": "uint256",
          "name": "",
          "type": "uint256"
        }
      ],
      "stateMutability": "view",
      "type": "function"
    },
    {
      "inputs": [
        {
          "internalType": "bytes32",
          "name": "role",
          "type": "bytes32"
        },
        {
          "internalType": "address",
          "name": "account",
          "type": "address"
        }
      ],
      "name": "grantRole",
      "outputs": [],
      "stateMutability": "nonpayable",
      "type": "function"
    },
    {
      "inputs": [
        {
          "internalType": "bytes32",
          "name": "role",
          "type": "bytes32"
        },
        {
          "internalType": "address",
          "name": "account",
          "type": "address"
        }
      ],
      "name": "hasRole",
      "outputs": [
        {
          "internalType": "bool",
          "name": "",
          "type": "bool"
        }
      ],
      "stateMutability": "view",
      "type": "function"
    },
    {
      "inputs": [
        {
          "internalType": "address payable",
          "name": "receiver",
          "type": "address"
        },
        {
          "internalType": "uint256",
          "name": "amount",
          "type": "uint256"
        }
      ],
      "name": "partiallyRetrieve",
      "outputs": [],
      "stateMutability": "nonpayable",
      "type": "function"
    },
    {
      "inputs": [
        {
          "internalType": "bytes32",
          "name": "role",
          "type": "bytes32"
        },
        {
          "internalType": "address",
          "name": "account",
          "type": "address"
        }
      ],
      "name": "renounceRole",
      "outputs": [],
      "stateMutability": "nonpayable",
      "type": "function"
    },
    {
      "inputs": [
        {
          "internalType": "address payable",
          "name": "receiver",
          "type": "address"
        }
      ],
      "name": "retrieve",
      "outputs": [],
      "stateMutability": "nonpayable",
      "type": "function"
    },
    {
      "inputs": [
        {
          "internalType": "bytes32",
          "name": "role",
          "type": "bytes32"
        },
        {
          "internalType": "address",
          "name": "account",
          "type": "address"
        }
      ],
      "name": "revokeRole",
      "outputs": [],
      "stateMutability": "nonpayable",
      "type": "function"
    },
    {
      "inputs": [
        {
          "internalType": "bytes4",
          "name": "interfaceId",
          "type": "bytes4"
        }
      ],
      "name": "supportsInterface",
      "outputs": [
        {
          "internalType": "bool",
          "name": "",
          "type": "bool"
        }
      ],
      "stateMutability": "view",
      "type": "function"
    },
    {
      "stateMutability": "payable",
      "type": "receive"
    }
  ],
  "bytecode": "0x60806040523480156200001157600080fd5b5060405162001e1b38038062001e1b833981810160405281019062000037919062000332565b6200004c6000801b826200008560201b60201c565b6200007e7fe0ba7b49edc651b7ad93b374c67f1e9a0d37370168bbb86b81c569ebfa15f046826200008560201b60201c565b50620003b7565b6200009c8282620000cd60201b620007771760201c565b620000c88160016000858152602001908152602001600020620000e360201b620007851790919060201c565b505050565b620000df82826200011b60201b60201c565b5050565b600062000113836000018373ffffffffffffffffffffffffffffffffffffffff1660001b6200020c60201b60201c565b905092915050565b6200012d82826200028660201b60201c565b6200020857600160008084815260200190815260200160002060000160008373ffffffffffffffffffffffffffffffffffffffff1673ffffffffffffffffffffffffffffffffffffffff16815260200190815260200160002060006101000a81548160ff021916908315150217905550620001ad620002f060201b60201c565b73ffffffffffffffffffffffffffffffffffffffff168173ffffffffffffffffffffffffffffffffffffffff16837f2f8788117e7eff1d82e926ec794901d17c78024a50270940304540a733656f0d60405160405180910390a45b5050565b6000620002208383620002f860201b60201c565b6200027b57826000018290806001815401808255809150506001900390600052602060002001600090919091909150558260000180549050836001016000848152602001908152602001600020819055506001905062000280565b600090505b92915050565b600080600084815260200190815260200160002060000160008373ffffffffffffffffffffffffffffffffffffffff1673ffffffffffffffffffffffffffffffffffffffff16815260200190815260200160002060009054906101000a900460ff16905092915050565b600033905090565b600080836001016000848152602001908152602001600020541415905092915050565b6000815190506200032c816200039d565b92915050565b6000602082840312156200034b576200034a62000398565b5b60006200035b848285016200031b565b91505092915050565b6000620003718262000378565b9050919050565b600073ffffffffffffffffffffffffffffffffffffffff82169050919050565b600080fd5b620003a88162000364565b8114620003b457600080fd5b50565b611a5480620003c76000396000f3fe6080604052600436106100ab5760003560e01c80639010d07c116100645780639010d07c1461020e57806391d148541461024b578063a217fddf14610288578063bc2a1e8d146102b3578063ca15c873146102de578063d547741f1461031b576100eb565b806301ffc9a7146100f05780630a79309b1461012d578063204a3e9314610156578063248a9ca31461017f5780632f2ff15d146101bc57806336568abe146101e5576100eb565b366100eb577f1e57e3bb474320be3d2c77138f75b7c3941292d647f5f9634e33a8e94e0e069b33346040516100e192919061142a565b60405180910390a1005b600080fd5b3480156100fc57600080fd5b50610117600480360381019061011291906111d5565b610344565b6040516101249190611453565b60405180910390f35b34801561013957600080fd5b50610154600480360381019061014f91906110bb565b6103be565b005b34801561016257600080fd5b5061017d600480360381019061017891906110e8565b610434565b005b34801561018b57600080fd5b506101a660048036038101906101a19190611128565b6105d4565b6040516101b3919061146e565b60405180910390f35b3480156101c857600080fd5b506101e360048036038101906101de9190611155565b6105f3565b005b3480156101f157600080fd5b5061020c60048036038101906102079190611155565b610627565b005b34801561021a57600080fd5b5061023560048036038101906102309190611195565b61065b565b60405161024291906113e6565b60405180910390f35b34801561025757600080fd5b50610272600480360381019061026d9190611155565b61068a565b60405161027f9190611453565b60405180910390f35b34801561029457600080fd5b5061029d6106f4565b6040516102aa919061146e565b60405180910390f35b3480156102bf57600080fd5b506102c86106fb565b6040516102d5919061146e565b60405180910390f35b3480156102ea57600080fd5b5061030560048036038101906103009190611128565b61071f565b604051610312919061154b565b60405180910390f35b34801561032757600080fd5b50610342600480360381019061033d9190611155565b610743565b005b60007f5a05180f000000000000000000000000000000000000000000000000000000007bffffffffffffffffffffffffffffffffffffffffffffffffffffffff1916827bffffffffffffffffffffffffffffffffffffffffffffffffffffffff191614806103b757506103b6826107b5565b5b9050919050565b6103e87fe0ba7b49edc651b7ad93b374c67f1e9a0d37370168bbb86b81c569ebfa15f0463361068a565b610427576040517f08c379a000000000000000000000000000000000000000000000000000000000815260040161041e9061150b565b60405180910390fd5b6104318147610434565b50565b61045e7fe0ba7b49edc651b7ad93b374c67f1e9a0d37370168bbb86b81c569ebfa15f0463361068a565b61049d576040517f08c379a00000000000000000000000000000000000000000000000000000000081526004016104949061150b565b60405180910390fd5b600073ffffffffffffffffffffffffffffffffffffffff168273ffffffffffffffffffffffffffffffffffffffff16141561050d576040517f08c379a0000000000000000000000000000000000000000000000000000000008152600401610504906114ab565b60405180910390fd5b47811115610550576040517f08c379a0000000000000000000000000000000000000000000000000000000008152600401610547906114eb565b60405180910390fd5b7f6109e2559dfa766aaec7118351d48a523f0a4157f49c8d68749c8ac41318ad128282604051610581929190611401565b60405180910390a18173ffffffffffffffffffffffffffffffffffffffff166108fc829081150290604051600060405180830381858888f193505050501580156105cf573d6000803e3d6000fd5b505050565b6000806000838152602001908152602001600020600101549050919050565b6105fd828261082f565b610622816001600085815260200190815260200160002061078590919063ffffffff16565b505050565b6106318282610858565b61065681600160008581526020019081526020016000206108db90919063ffffffff16565b505050565b6000610682826001600086815260200190815260200160002061090b90919063ffffffff16565b905092915050565b600080600084815260200190815260200160002060000160008373ffffffffffffffffffffffffffffffffffffffff1673ffffffffffffffffffffffffffffffffffffffff16815260200190815260200160002060009054906101000a900460ff16905092915050565b6000801b81565b7fe0ba7b49edc651b7ad93b374c67f1e9a0d37370168bbb86b81c569ebfa15f04681565b600061073c60016000848152602001908152602001600020610925565b9050919050565b61074d828261093a565b61077281600160008581526020019081526020016000206108db90919063ffffffff16565b505050565b6107818282610963565b5050565b60006107ad836000018373ffffffffffffffffffffffffffffffffffffffff1660001b610a43565b905092915050565b60007f7965db0b000000000000000000000000000000000000000000000000000000007bffffffffffffffffffffffffffffffffffffffffffffffffffffffff1916827bffffffffffffffffffffffffffffffffffffffffffffffffffffffff19161480610828575061082782610ab3565b5b9050919050565b610838826105d4565b61084981610844610b1d565b610b25565b6108538383610963565b505050565b610860610b1d565b73ffffffffffffffffffffffffffffffffffffffff168173ffffffffffffffffffffffffffffffffffffffff16146108cd576040517f08c379a00000000000000000000000000000000000000000000000000000000081526004016108c49061152b565b60405180910390fd5b6108d78282610bc2565b5050565b6000610903836000018373ffffffffffffffffffffffffffffffffffffffff1660001b610ca3565b905092915050565b600061091a8360000183610db7565b60001c905092915050565b600061093382600001610de2565b9050919050565b610943826105d4565b6109548161094f610b1d565b610b25565b61095e8383610bc2565b505050565b61096d828261068a565b610a3f57600160008084815260200190815260200160002060000160008373ffffffffffffffffffffffffffffffffffffffff1673ffffffffffffffffffffffffffffffffffffffff16815260200190815260200160002060006101000a81548160ff0219169083151502179055506109e4610b1d565b73ffffffffffffffffffffffffffffffffffffffff168173ffffffffffffffffffffffffffffffffffffffff16837f2f8788117e7eff1d82e926ec794901d17c78024a50270940304540a733656f0d60405160405180910390a45b5050565b6000610a4f8383610df3565b610aa8578260000182908060018154018082558091505060019003906000526020600020016000909190919091505582600001805490508360010160008481526020019081526020016000208190555060019050610aad565b600090505b92915050565b60007f01ffc9a7000000000000000000000000000000000000000000000000000000007bffffffffffffffffffffffffffffffffffffffffffffffffffffffff1916827bffffffffffffffffffffffffffffffffffffffffffffffffffffffff1916149050919050565b600033905090565b610b2f828261068a565b610bbe57610b548173ffffffffffffffffffffffffffffffffffffffff166014610e16565b610b628360001c6020610e16565b604051602001610b739291906113ac565b6040516020818303038152906040526040517f08c379a0000000000000000000000000000000000000000000000000000000008152600401610bb59190611489565b60405180910390fd5b5050565b610bcc828261068a565b15610c9f57600080600084815260200190815260200160002060000160008373ffffffffffffffffffffffffffffffffffffffff1673ffffffffffffffffffffffffffffffffffffffff16815260200190815260200160002060006101000a81548160ff021916908315150217905550610c44610b1d565b73ffffffffffffffffffffffffffffffffffffffff168173ffffffffffffffffffffffffffffffffffffffff16837ff6391f5c32d9c69d2a47ea670b442974b53935d1edc7fd64eb21e047a839171b60405160405180910390a45b5050565b60008083600101600084815260200190815260200160002054905060008114610dab576000600182610cd5919061163d565b9050600060018660000180549050610ced919061163d565b9050818114610d5c576000866000018281548110610d0e57610d0d6117f2565b5b9060005260206000200154905080876000018481548110610d3257610d316117f2565b5b90600052602060002001819055508387600101600083815260200190815260200160002081905550505b85600001805480610d7057610d6f6117c3565b5b600190038181906000526020600020016000905590558560010160008681526020019081526020016000206000905560019350505050610db1565b60009150505b92915050565b6000826000018281548110610dcf57610dce6117f2565b5b9060005260206000200154905092915050565b600081600001805490509050919050565b600080836001016000848152602001908152602001600020541415905092915050565b606060006002836002610e2991906115e3565b610e33919061158d565b67ffffffffffffffff811115610e4c57610e4b611821565b5b6040519080825280601f01601f191660200182016040528015610e7e5781602001600182028036833780820191505090505b5090507f300000000000000000000000000000000000000000000000000000000000000081600081518110610eb657610eb56117f2565b5b60200101907effffffffffffffffffffffffffffffffffffffffffffffffffffffffffffff1916908160001a9053507f780000000000000000000000000000000000000000000000000000000000000081600181518110610f1a57610f196117f2565b5b60200101907effffffffffffffffffffffffffffffffffffffffffffffffffffffffffffff1916908160001a90535060006001846002610f5a91906115e3565b610f64919061158d565b90505b6001811115611004577f3031323334353637383961626364656600000000000000000000000000000000600f861660108110610fa657610fa56117f2565b5b1a60f81b828281518110610fbd57610fbc6117f2565b5b60200101907effffffffffffffffffffffffffffffffffffffffffffffffffffffffffffff1916908160001a905350600485901c945080610ffd9061176a565b9050610f67565b5060008414611048576040517f08c379a000000000000000000000000000000000000000000000000000000000815260040161103f906114cb565b60405180910390fd5b8091505092915050565b600081359050611061816119ab565b92915050565b600081359050611076816119c2565b92915050565b60008135905061108b816119d9565b92915050565b6000813590506110a0816119f0565b92915050565b6000813590506110b581611a07565b92915050565b6000602082840312156110d1576110d0611850565b5b60006110df84828501611067565b91505092915050565b600080604083850312156110ff576110fe611850565b5b600061110d85828601611067565b925050602061111e858286016110a6565b9150509250929050565b60006020828403121561113e5761113d611850565b5b600061114c8482850161107c565b91505092915050565b6000806040838503121561116c5761116b611850565b5b600061117a8582860161107c565b925050602061118b85828601611052565b9150509250929050565b600080604083850312156111ac576111ab611850565b5b60006111ba8582860161107c565b92505060206111cb858286016110a6565b9150509250929050565b6000602082840312156111eb576111ea611850565b5b60006111f984828501611091565b91505092915050565b61120b81611701565b82525050565b61121a81611671565b82525050565b61122981611695565b82525050565b611238816116a1565b82525050565b600061124982611566565b6112538185611571565b9350611263818560208601611737565b61126c81611855565b840191505092915050565b600061128282611566565b61128c8185611582565b935061129c818560208601611737565b80840191505092915050565b60006112b5601b83611571565b91506112c082611866565b602082019050919050565b60006112d8602083611571565b91506112e38261188f565b602082019050919050565b60006112fb601283611571565b9150611306826118b8565b602082019050919050565b600061131e601e83611571565b9150611329826118e1565b602082019050919050565b6000611341601783611582565b915061134c8261190a565b601782019050919050565b6000611364601183611582565b915061136f82611933565b601182019050919050565b6000611387602f83611571565b91506113928261195c565b604082019050919050565b6113a6816116f7565b82525050565b60006113b782611334565b91506113c38285611277565b91506113ce82611357565b91506113da8284611277565b91508190509392505050565b60006020820190506113fb6000830184611211565b92915050565b60006040820190506114166000830185611202565b611423602083018461139d565b9392505050565b600060408201905061143f6000830185611211565b61144c602083018461139d565b9392505050565b60006020820190506114686000830184611220565b92915050565b6000602082019050611483600083018461122f565b92915050565b600060208201905081810360008301526114a3818461123e565b905092915050565b600060208201905081810360008301526114c4816112a8565b9050919050565b600060208201905081810360008301526114e4816112cb565b9050919050565b60006020820190508181036000830152611504816112ee565b9050919050565b6000602082019050818103600083015261152481611311565b9050919050565b600060208201905081810360008301526115448161137a565b9050919050565b6000602082019050611560600083018461139d565b92915050565b600081519050919050565b600082825260208201905092915050565b600081905092915050565b6000611598826116f7565b91506115a3836116f7565b9250827fffffffffffffffffffffffffffffffffffffffffffffffffffffffffffffffff038211156115d8576115d7611794565b5b828201905092915050565b60006115ee826116f7565b91506115f9836116f7565b9250817fffffffffffffffffffffffffffffffffffffffffffffffffffffffffffffffff048311821515161561163257611631611794565b5b828202905092915050565b6000611648826116f7565b9150611653836116f7565b92508282101561166657611665611794565b5b828203905092915050565b600061167c826116d7565b9050919050565b600061168e826116d7565b9050919050565b60008115159050919050565b6000819050919050565b60007fffffffff0000000000000000000000000000000000000000000000000000000082169050919050565b600073ffffffffffffffffffffffffffffffffffffffff82169050919050565b6000819050919050565b600061170c82611713565b9050919050565b600061171e82611725565b9050919050565b6000611730826116d7565b9050919050565b60005b8381101561175557808201518184015260208101905061173a565b83811115611764576000848401525b50505050565b6000611775826116f7565b9150600082141561178957611788611794565b5b600182039050919050565b7f4e487b7100000000000000000000000000000000000000000000000000000000600052601160045260246000fd5b7f4e487b7100000000000000000000000000000000000000000000000000000000600052603160045260246000fd5b7f4e487b7100000000000000000000000000000000000000000000000000000000600052603260045260246000fd5b7f4e487b7100000000000000000000000000000000000000000000000000000000600052604160045260246000fd5b600080fd5b6000601f19601f8301169050919050565b7f52656365697665722061646472657373206973206e6f74207365740000000000600082015250565b7f537472696e67733a20686578206c656e67746820696e73756666696369656e74600082015250565b7f496e73756666696369656e742066756e64730000000000000000000000000000600082015250565b7f45544845525f4d414e414745525f524f4c452069732072657175697265640000600082015250565b7f416363657373436f6e74726f6c3a206163636f756e7420000000000000000000600082015250565b7f206973206d697373696e6720726f6c6520000000000000000000000000000000600082015250565b7f416363657373436f6e74726f6c3a2063616e206f6e6c792072656e6f756e636560008201527f20726f6c657320666f722073656c660000000000000000000000000000000000602082015250565b6119b481611671565b81146119bf57600080fd5b50565b6119cb81611683565b81146119d657600080fd5b50565b6119e2816116a1565b81146119ed57600080fd5b50565b6119f9816116ab565b8114611a0457600080fd5b50565b611a10816116f7565b8114611a1b57600080fd5b5056fea26469706673582212208a8dd30d57d6b4eba7f0ec9d60380c51ab53d1eaac96da176b86ed99928ff96064736f6c63430008070033",
  "linkReferences": {},
  "deployedLinkReferences": {}
}